:020000040800F2
:10000000500F002085020008890200088B020008BA
:100010008D0200088F020008910200080000000015
:100020000000000000000000000000009302000833
:1000300095020008000000009702000899020008DD
:100040009B0200089B0200089B0200089B0200081C
:100050009B0200089B0200089B0200089B0200080C
:100060009B0200089B0200089B0200089B020008FC
:100070009B0200089B0200089B0200089B020008EC
:100080009B0200089B0200089B0200089B020008DC
:100090009B0200089B0200089B0200089B020008CC
:1000A0009B0200089B0200089B0200089B020008BC
:1000B0009B0200089B0200086F0A00089B020008D0
:1000C0009B0200089B0200089B0200089B0200089C
:1000D0009B020008B90600087D0800089B02000882
:1000E0009B0200089B0200089B0200089B0200087C
:1000F0009B0200089B0200089B0200089B0200086C
:100100009B0200089B0200089B0200089B0200085B
:100110009B0200089B0200089B0200089B0200084B
:100120009B0200089B0200089B0200089B0200083B
:1001300000F002F800F090F80AA090E8000C824469
:100140008344AAF10107DA4501D100F085F8AFF246
:10015000090EBAE80F0013F0010F18BFFB1A43F0A5
:1001600001031847FC2C00001C2D0000103A24BF8E
:1001700078C878C1FAD8520724BF30C830C144BF0C
:1001800004680C607047000000230024002500264E
:10019000103A28BF78C1FBD8520728BF30C148BFEA
:1001A0000B6070476E2901F0F581702901F06683BC
:1001B000662902F0D085652902F0CD85672902F015
:1001C000CA856129AFF3008003681B0A28BF41F08C
:1001D0008001692901F01080642901F00D807529E2
:1001E00001F00A806F2901F0F182782901F0328351
:1001F000E92901F08982E42901F08682F52901F0DC
:100200008382EF2901F0EE82F82901F0318303683F
:10021000DB0928BF41F08001632901F0F8817329CF
:1002200001F0FD81E32901F09485F32901F099851E
:10023000002070471FB501F0E9FD040000200021F7
:1002400002F0D0FA401C60600020002102F0B4FAF5
:10025000E0601FBD10B510BD01F0ABFD1146FFF70A
:10026000E9FF00F02BF801F087FE03B4FFF7F2FF7F
:1002700003BC00F013FA000030BF72B662B680F320
:100280000888704708480047FEE7FEE7FEE7FEE7FC
:10029000FEE7FEE7FEE7FEE7FEE7FEE70348044968
:1002A000044A054B70470000310100085009002046
:1002B000500F0020500B0020500B002010B54FF0C5
:1002C000FF34092000F092F9482000F033F84FF491
:1002D0001651482000F02BFA00F02AFF044614B90A
:1002E00007A000F03DFF4FF0FF3400F0F7FB04469D
:1002F00014B90AA000F034FF00F0A6FC002010BDE5
:100300002075736572277320646576696365732051
:10031000696E6974206F6B210D0A00002077696691
:1003200069206D6F64656C20696E6974206F6B2045
:100330000A0000004FF0E021096921F004014FF0AC
:10034000E0221161C21700EB5272D210224B1A70D8
:100350001946097801EB4102C2EBC1114FF6FF7259
:1003600002EAC1011D4A1180704701461A4A1278FB
:100370004A434FF0E0235A6100229A6101221A6138
:1003800000BF4FF0E022106910F0010F02D010F40E
:10039000803FF6D000224FF0E0231A619A61704747
:1003A00001460E4A12884A434FF0E0235A61002268
:1003B0009A6101221A6100BF4FF0E022106910F02B
:1003C000010F02D010F4803FF6D000224FF0E0235E
:1003D0001A619A61704700000000002002000020AE
:1003E000A34A0A400243A34B1A6070470146072301
:1003F00023EA010212029F4B1B1D18684FF6FF03F0
:1004000018409D4B184310439A4B1B1D18607047B2
:100410002DE9F0410746884614461D462846FFF759
:10042000E5FFC5F1040007FA00F60F20284100EAB5
:100430000800064306F00F06E21704EBD2625211E1
:100440004FF0E02303EB8202D2F800212146E317AC
:1004500004EBD3635B11A4EB431C012303FA0CF3FD
:100460001A432046E31704EBD3635B114FF0E02CF3
:100470000CEB8303C3F800218048005D40EA0610BE
:100480007E490855BDE8F08170B504460B46CE178D
:1004900001EB9676B010CE1701EB9676B610A1EB75
:1004A0008606B606350E764B9B6943F00103744E03
:1004B000B3614FEAB63353F820300F26AE40B34352
:1004C000704E46F82030334653F8203004FA05F6D3
:1004D00033436C4E46F820306B4B1E6801238B4033
:1004E0001E43694B1E6012F0010F08D0664B0C339F
:1004F0001B6801268E403343634E0C36336012F086
:10050000020F08D0604B08331B6801268E4033432E
:100510005D4E0836336070BD00B500205849086153
:10052000C8601420486100208861C86108460068DE
:1005300040F00100086008464068544908405049AE
:10054000486008460068524908404D49086008461E
:10055000006820F4802008600846406820F4FE000F
:1005600048600020886000214FF00060FFF738FFEE
:1005700000BD10B53F480830006840F004003D4918
:10058000083108603E48C06940F080503C49C8616D
:100590004048406840F480703E4948600846006822
:1005A00040F0040008600846006840F0020008605F
:1005B000FFF762FE10BD3048001D2E49091D08607E
:1005C0007047014649062E4A926942F001022C4BBF
:1005D0009A612C4A083A526822F0E062294B083BA3
:1005E0005A601A4652680A435A60704730B504464A
:1005F0000025FFF791FF2248006840F48030204931
:10060000086000BF1E480068400CFBD04FF48060BB
:100610001B494860A01EC4B20846406840EA8440B6
:1006200048600846406840F4803048601A480068D6
:1006300040F03200184908601148006840F08070AE
:100640000F49086000BF0E480068400EFBD00C4800
:10065000406840F002000A49486005E008484068E8
:10066000C0F3870505F00305022DF7D130BD00006A
:1006700080FFFF1F08ED00E00000FA0500E400E045
:100680000010024008000140000401400000FFF893
:10069000FFFFF6FE0070004000200240014600BF50
:1006A000704700BF574A128812F0400FFAD0C2B20A
:1006B000544B1B1D1A8070475249098811F0200FB6
:1006C00034D05049091D0988C8B24F49098811F42E
:1006D000004F2BD14C49098811F4804F0CD00A28C7
:1006E00003D00021484A118020E04749098841F49D
:1006F0000041454A118019E00D2806D14249098878
:1007000041F48041404A118010E03F490988C1F31B
:100710000D013E4A50543C490988491C3A4A11800F
:1007200011460988C72901DD0021118070472DE994
:10073000F05F05460E46300102F0AEF981463449BD
:1007400005FB01F002F0A8F98246494602F0C2F822
:100750000746384602F080F984B2204602F09CF940
:100760008346394602F078FA82464FF0834102F020
:10077000A7F9814602F070F980464FF6FF7000EA53
:10078000041404EB080084B22248806940F004009D
:10079000204988610846806940F4804088611E488D
:1007A000006820F47F601C4908600846006840F437
:1007B0000B6008601748C06840F480401549C86065
:1007C0000846C06820F48040C8600E4808300480A5
:1007D000001D008842F20C0108430A490C310880D0
:1007E0000846008840F4807008800846008840F081
:1007F000200008800223252203210846FFF708FE77
:10080000BDE8F09F003801400400002024000020D3
:1008100040420F0000100240040801400A4880696D
:1008200040F00400084988610848006820F00F0083
:10083000064908600846006840F003000860881513
:100840000249083108607047001002400408014066
:1008500058B10021924A118091492439098841F008
:1008600001018F4A243A118007E08D492439098813
:1008700021F001018A4A243A1180704700B5894865
:10088000008810F0200F20D08648001D0088C3B2D9
:1008900085480088B0F5806F11DA00208049088013
:1008A0008148008810B90120FFF7D2FF7E480188F7
:1008B0000088401C7C4A10807C48435405E07A48FC
:1008C000008840F400407849088000BD70B50546B6
:1008D0000C467748C06940F004007549C86170480B
:1008E00008300580001F04806D481838008840F0EB
:1008F00001006B491839088069482438008840F0A5
:10090000010067492439088002231E2203210120A7
:10091000FFF77EFD70BD70B504460E46154664486F
:10092000406940F00100624948610520FFF71DFD64
:10093000A660E56000202060206840F01000206084
:100940002068206020682060206840F080002060DF
:100950002068206020682060206840F4805020607B
:100960002068206070BD70B505460C46504880690F
:1009700040F004004E4988614E48006820F47F40F2
:100980004C4908600846006840F40B40086048483D
:10099000C06940F400304649C8610846006940F427
:1009A000003008610846006920F4003008614248C0
:1009B0006843B0FBF4F03B4908310880081D00880B
:1009C00042F20C01084337490C3108808020354938
:1009D00014310880394A3349091D3948FFF79BFF14
:1009E00030480C30008840F480702E490C3108806B
:1009F0000846008840F020000880022326220321B8
:100A00001846FFF705FD41F61F4140F2E730FFF7BA
:100A10005DFF002024490880FFF71AFF29A000F09D
:100A20009FFB70BD026822F0010202604160026813
:100A300042F00102026070470FB438B505A800907B
:100A40001E48009A049900F079FB0020009000BF36
:100A5000214800680028FBD1184800F0E1FC84B26E
:100A600021461748FFF7DEFF38BC5DF814FB00B5E0
:100A70000B481438008810F0010F10D00A48008885
:100A800040F400400849088005481438008820F0E8
:100A900001000349143908800020FFF7D9FE00BD8A
:100AA00024080040004400400C000020F004002016
:100AB000001002400008014040420F00F0000020FA
:100AC000800002405553415254325F496E69742090
:100AD0006F6B200A000000008400024010B56948D6
:100AE000806940F00400674988616748006820F425
:100AF0007020654908600846006840F4403008608E
:100B00000120624908604FF4E1314FF02400FFF703
:100B10002AFF002010BD70B5044600255C480088FF
:100B200010F4004F0BD0002059490988C1F30E0181
:100B3000584A50542146104600F060FC05462846AD
:100B400070BD2DE9F04106460D46144600270020F1
:100B50004F490880314650A0FFF76EFFC5B1BCB1C8
:100B60000FE00A20FFF71CFC4948008810F4004FF2
:100B700007D02846FFF7CFFF00B106E00020444928
:100B80000880601E80B20400EBD100BF04B90127C9
:100B90003846BDE8F08110B500203C4908604FF0B0
:100BA0007800FFF7FDFB01203C49C1F890010020CF
:100BB00010BD70B5FFF7EFFF08B1002070BD322205
:100BC00037A138A0FFF7BDFF3AA0FFF7A4FF054605
:100BD000AC78322238A139A0FFF7B3FF2046EDE709
:100BE00070B5054632222EA138A0FFF7AAFF10B13A
:100BF0000020287070BD2FA0FFF78DFF044637A19D
:100C0000204600F0FBFB064600203070A21C34A1F9
:100C1000284600F0B1FA00BFECE710B5142220A17D
:100C200030A0FFF78EFF23A0FFF775FF0446214693
:100C300031A000F095FA33A1204600F0DFFB08B1A7
:100C4000012010BD0020FCE710B5FFF7A4FF30A085
:100C500000F086FA05E04FF44870FFF7A1FBFFF7BC
:100C60009AFF142213A132A0FFF76BFF0028F2D1E4
:100C70000A20FFF795FB2FA000F072FA00F074F83D
:100C800010BD000000100240000801409001214208
:100C90000C000020F004002025730D00000021420C
:100CA0003F00000061742B53324E5F537461743DFA
:100CB0003F0000000D0A00006F6B000061742B6F95
:100CC00075745F7472616E733D30000061742B6ED9
:100CD00065745F77616E69703D3F00002C00000015
:100CE0002573000061742B776966695F436F6E53EB
:100CF000746174653D3F00002070203D2025732005
:100D0000200A0A00436F6E6E65637465640000001C
:100D100020736561726368696E6720776966692010
:100D20006D6F64656C2E2E2E2E2E2E2E200A000046
:100D300061740000202066696E64656420776966CE
:100D400069206D6F64656C2074727920746F2073F4
:100D500065742077696669206D6F64656C2E2E2E30
:100D60002E2E200A00000000F0B59BB040F2E734C0
:100D70000026002500274FF4FA7260A160A0FFF75B
:100D8000E0FE4FF4FA725DA161A0FFF7DAFE4FF4C6
:100D9000FA725AA161A0FFF7D4FE63480068009080
:100DA00062480368624863A1026802A800F0E4F99F
:100DB0004FF4FA7251A102A8FFF7C3FE02A963A083
:100DC00000F0CEF94FF4FA724CA167A0FFF7B9FE1C
:100DD0006A486BA1026802A800F0CEF94FF4FA72DB
:100DE00046A102A8FFF7ADFE6448016869A000F0C3
:100DF000B7F9704870A1026802A800F0BDF94FF47D
:100E0000FA723EA102A8FFF79CFE4FF4FA723BA1D2
:100E10006DA0FFF796FE674801686FA000F0A0F98B
:100E20000A20FFF7BDFA73A000F09AF94FF47A6236
:100E30007AA17BA0FFF785FE40B17DA000F090F97C
:100E40004FF44870FFF7ACFA012651E084A000F09F
:100E500087F94FF4FA7229A190A0FFF772FE4FF4C0
:100E60001670FFF79DFAFFF796FE06E08EA000F0E1
:100E700077F94FF44870FFF793FAFFF7CEFE00289A
:100E8000F4D000209349088031E00A20FFF788FA67
:100E90009048008810F4004F13D08E480088C0F3AB
:100EA0000E0500208C4948552A468CA102A800F066
:100EB00063F9224688498EA000F052F90020854946
:100EC00008804FF47A7094FBF0F100FB114060B998
:100ED000FFF76FFE3038C7B21FB189A000F040F9AC
:100EE00002E08DA000F03CF90024601C84B2CCE745
:100EF000FFF751FE30461BB0F0BD00006F6B0000E5
:100F000061742B6E65746D6F64653D320000000086
:100F100061742B64686370643D30000061742B64FD
:100F2000686370633D3100001C0000201800002041
:100F30001400002061742B776966695F636F6E66C9
:100F40003D25732C25732C257300000020776966DE
:100F500069206D6F64656C20726F757465723A20DC
:100F60002573200A0000000061742B72656D6F7498
:100F70006570726F3D746370000000001000002007
:100F800061742B72656D6F7465706F72743D25733B
:100F9000000000002077696669206D6F64656C2031
:100FA00072656D6F7465706F7274203D20256420CA
:100FB0000A2000002000002061742B72656D6F74A0
:100FC0006569703D2573000061742B6D6F64653D2C
:100FD000636C69656E7400002077696669206D6FC7
:100FE00064656C2072656D6F74656970203D2025A5
:100FF00073200A002077696669206D6F64656C2034
:10100000697320636F6E66696720636F6D6D6974C5
:101010002E2E2E2E2E20200A000000000D0A000089
:1010200061742B6E65745F636F6D6D69743D310023
:101030002077696669206D6F64656C206973206331
:101040006F6E6669676564206572726F7220747274
:1010500079696E6720616761696E2E2020200A0021
:101060002077696669206D6F64656C206973206301
:101070006F6E66696765642073756363736564206A
:101080007265737461727420636F6E6E65637469E8
:101090006F6E2E2E2E20200A0000000061742B722D
:1010A00065636F6E6E3D310077696669206D6F64B0
:1010B000656C20636F6E6E65637465642065727223
:1010C0006F722C74727920616761696E202E2E2EEA
:1010D0000A0000000C000020F0040020CAD5B5BDB5
:1010E0002564D7D6BDDA2CC4DAC8DDC8E7CFC20084
:1010F000202573202B20743D2025640A0000000069
:1011000020736572766572206973206F6E6C696EEC
:10111000652020200A000000207365727665722029
:1011200069732774206F6E6C696E6520200A000059
:1011300010B5FFF773FB002010BD70471CB50C46BF
:10114000064B7B4469460090204600F03EFA044678
:101150000020694600F04CFA20461CBDAB0400009C
:101160000FB4044910B503AA029800F05DFA10BC50
:101170005DF814FB080000200FB41CB5084B06AA4C
:101180007B4469460090059800F01FFA0446002051
:10119000694600F02DFA20461CBC5DF814FB0000E7
:1011A0006D04000070B50C460546012A05D028786C
:1011B000800600D5EA69002302E0012305E05B1CFC
:1011C000934202D2E05C0028F9D1A869E618C01A5F
:1011D000A861286A18442862284600F044F904E00F
:1011E000D5E9012114F8010B9047B442F8D3284601
:1011F00000F050F970BD00002DE9F04106460024D2
:1012000010687529314616A511D000F055F900284F
:1012100003DAC0F1000013A507E031688A0701D5A1
:1012200011A502E0490704D510A5012401E000F052
:101230004CF900210A2306F1240707E0B0FBF3F282
:1012400003FB1200303078541046491C0028F5D1B9
:1012500023462A463046BDE8F04100F03FB9000081
:10126000000000002D0000002B0000002000000006
:101270002DE9F05F894604464FF0000ADFF878B1A7
:10128000FB44C0F820A02046E1688847002875D0BC
:10129000252806D0D4E901219047206A401C20620D
:1012A000F1E700265F462046E1688847202805468A
:1012B00008DB312D06D207EB050010F8200C08B131
:1012C0000643F0E7B00701D526F00406C4F81CA0D9
:1012D0000027C4F818A02A2D09D0284601F065FA85
:1012E00038B304EB8708303DC8F8185019E059F8B6
:1012F000041B204604EB87029161E1688847012FB7
:10130000054618D1E069002820DA26F020061DE005
:10131000D8F8180000EB800005EB40003038C8F822
:1013200018002046E1688847054601F03EFA00288B
:10133000EED1012F0AD02E2D08D12046E168884732
:101340007F1C0546022F46F02006C4DBA06900285A
:1013500003DA404246F00106A061F00701D026F012
:1013600010066C2D0BD0682D09D04C2D39D06A2D6C
:1013700035D0742D35D07A2D33D016E038E0E168C1
:101380002F4620468847B842054609D16C2F26D003
:101390004FF48060E168064320468847054604E034
:1013A0006C2F1AD04FF4807006430DB3A5F14100A5
:1013B000192802D8203546F400664A4629462046B8
:1013C00026604E46FEF7EEFE80B101280BD0F61DDA
:1013D00026F0070000F1080955E74020E4E78020E7
:1013E000D8E70020D6E706F104094CE7284651E784
:1013F000206ABDE8F09F0000D61A000030B505460F
:101400000B462A4613F8014B12F8010B08B1A04213
:10141000F8D01CB1002802D06D1CF1E7284630BD81
:1014200010B5431C02E010F8011B71B18107FAD11D
:101430004FF0013202C88C1A8C4314EAC211F9D061
:10144000C01A0A0603D0C01E10BDC01A10BD0A047F
:1014500001D0801E10BD0902FCD0401E10BD704797
:1014600070477047704770B5044685690068C106CB
:1014700001D5302600E02026C00708D070BDD4E991
:10148000012130469047206A00F1010020626D1E64
:10149000F5D570BD70B5044685690078C00708D1E0
:1014A00070BDD4E9012120209047206A00F101009D
:1014B00020626D1EF5D570BD09684A0501D540B2A0
:1014C0007047C905FCD500B2704709684A0501D5C7
:1014D000C0B27047C905FCD580B270472DE9F0470E
:1014E0000D4699469246044600F124080168880694
:1014F00004D5E06921F01001216000E00120A8423C
:1015000002DDA0EB050700E00027A16907EB05025B
:1015100002EB0900A1EB0000A0612078C00602D414
:101520002046FFF7A0FF002608E0D4E901211AF8C1
:1015300006009047206A401C761C20624E45F4DB72
:101540002078C0060AD52046FFF78DFF06E0D4E9D3
:10155000012130209047206A401C2062381EA7F1EC
:101560000107F4DC07E0D4E9012118F805009047F1
:10157000206A401C2062281EA5F10105F3DC2046EC
:10158000FFF788FF2078000602D50220BDE8F0872B
:101590000120FBE711680268006A530501D5087055
:1015A0000BE0D30501D5088007E0130603D5C21769
:1015B000C1E9000201E05206086001207047000006
:1015C00001694A1C02610878704700B58FB0CDE907
:1015D00001310021059105497944CDE903101146F7
:1015E0006846FFF745FE0FB000BD0000E5FFFFFFB6
:1015F0000A6802F8010B0A60704710B5436913B11D
:10160000AFF3008001E0FFF7CDFD012010BD12789F
:1016100000F124010A7000224A700122EDE71168EE
:101620004FF0FF32E9E70000074B70B50D467B44F1
:10163000FFF7CBFF0446284600F097FB10B14FF0B0
:10164000FF3070BD204670BD71F0FFFF2DE9FF5FD8
:1016500015468A460446DFF8AC80F8440027D8E9EE
:1016600000103E46CDE9001011E03AF816106A4627
:1016700002A800F07EFB411C07D02178890603D523
:10168000E269391891420ED8074406F10106207824
:10169000800602D5E069B84205DDAE42E5DB3AF8E6
:1016A00016000028E1D1A069C01BA0612046FFF709
:1016B000DAFED8E90010CDE90010002016E03AF873
:1016C00018106A4602A800F054FB8146401C0BD05B
:1016D00000250DF1080B05E0D4E901211BF80500F8
:1016E00090476D1C4D45F7D308F10100B04280468C
:1016F000E5DB206A384420622046FFF7CBFEBDE8D8
:10170000FF9F00000E1700002DE9F0418046D21D1A
:1017100022F007020025D2E90002F52914A612D012
:10172000002A06DA0023D0EB030063EB020211A6C5
:1017300008E0D8F800108B0701D50FA602E0490792
:1017400001D50EA601251146002408F1240704E066
:1017500000F0A0F830323A55641C50EA0102F7D18B
:101760002B46324621464046BDE8F041FFF7B6BE63
:10177000000000002D0000002B00000020000000F1
:1017800030B4002100F124040CE002F0070505F15B
:1017900030054FEAD20242EA4372655401F1010179
:1017A0004FEAD30352EA0305EFD10468002310A2E5
:1017B000250708D504F020040C4304D0C469012394
:1017C0000CA2641EC46130BCFFF788BE10B504468D
:1017D00021461068FFF779FE02462046BDE810401A
:1017E0000023CDE7D21D22F00701D1E90023C7E78E
:1017F0000000000030000000F0B40D46018809052B
:1018000002D5234C7C4402E0214C7C440E34002160
:1018100000F124060BE002F00F074FEA1212E75D19
:1018200042EA03724FEA1313775401F1010152EABD
:101830000307F0D102780023120704D5702D06D0DB
:1018400009B1113402232246F0BCFFF747BE103421
:101850000123F8E770B504460D4621461068FFF7EE
:1018600034FE024629462046BDE870400023C3E707
:10187000D21D22F00703D3E90023BDE703681268F5
:1018800043F0200303600823C3610023B4E7000092
:101890006C15000030B5B0F10A024FEA900E71F1FC
:1018A00000034EEA817EB0EB0E0061EB91014FEA3E
:1018B000101E4EEA017E10EB0E0041EB11114FEAB3
:1018C000102E4EEA016E10EB0E0041EB11214FEA93
:1018D000104E4EEA014E10EB0E0041EB1141401844
:1018E00041F100014FEAD00040EA41704FEAD101D6
:1018F00010EB80054FEA810444EA907444EB010444
:101900006D1944EB0404521BA3414FF0000348BF80
:101910000A3200D530BD401C41F1000130BD704796
:101920002DE9FF4F0C461E464FF0FF378BB0D2E932
:101930000001DDF860800A908A46C1F30A5505B9B6
:101940003D46002108464FF00000BAF1000F00F4B8
:10195000400005DA00EB80004FF4400101EA50003E
:101960004FEA9059B9F1010F00DDB9460A9850EAE3
:101970004A000ED044F61050A5F2FF3545432F140F
:10198000B8F1000F1ED07542291E1EDDC9F10002FC
:101990001CE0B8F1010F4FF0000001D0302103E04E
:1019A000F24305E02154401CB042FBDB30460022EC
:1019B000002121540B99C1F80880C1E900200FB023
:1019C000BDE8F08FBD1B6D1CDEE74A4600DA6942B8
:1019D00006A800F05FFA06AB07CB03AB07C350467F
:1019E0000A9900F013FB8DE80700A0F500501F389E
:1019F00000900398002D09DD42F21F014A46084479
:101A000003A90390684600F072FD08E0A0F50050BD
:101A10004A461F3803A90390684600F07CFD8DE814
:101A200007000004000C03D04FF0FF30410800E035
:101A30001046B8F1000F03D00022009215461FE0B7
:101A4000751E06D4FFF726FF02F1300262556D1EA7
:101A5000F8D5B3460122084302D000227F1C04E0DF
:101A60002078302801D100227F1E002A099787D0D4
:101A70001DE0112D07DAFFF70DFF303262556D1CA6
:101A800050EA0102F5D108430FD10021681E05E09C
:101A9000235C625C6354491C2254401E8142F7DB84
:101AA000AB46A81B401E099001E0009848B10020F9
:101AB00004F80B000B98099AC0F80880C0E9002BC5
:101AC0007DE711264FF000085AE72DE9F04F8846D0
:101AD0000446D21D22F0070191B0D1E90001CDE901
:101AE0000A0100F04EFE02460B98C00F01D02D20D7
:101AF00007E02068810701D52B2002E0202101EAC0
:101B0000C000032A099001D0072A05DB034641469D
:101B1000204600F07FF90FE12078800601D5E069CA
:101B200000E00620B8F1650F814606D0B8F1660FD7
:101B300018D0B8F1670F72D132E00020B9F1110F5F
:101B4000009001DB112301E009F101030AAA01A9B8
:101B50000CA8FFF7E5FEDDE90C70002609F1010590
:101B6000834648E001204B4600904FF000470AAA08
:101B700001A90CA8FFF7D4FEDDE90DB00C995D4674
:101B8000002618B909F1010001EB0005B9EB0500C9
:101B900003D4C0F1FF3609F10105A5EB09002BE0E4
:101BA000B9F1010F01DA4FF001090020B9F1110F6D
:101BB0000090484601DD112300E003460AAA01A96E
:101BC0000CA8FFF7ADFEDDE90C704D4600268346FC
:101BD000207800070AD4AB4500DA5D4601A8012D44
:101BE00004DD411911F8011C302907D04F4502DAF4
:101BF00017F1040F04DA0120824610E06D1EEEE7B3
:101C0000002F02DCED1B3E4403E0781CA84200DDFF
:101C10000546A7EB060000F1010A4FF000472078C7
:101C2000000703D4AA4501DB4FF0FF3A0021B7F1CA
:101C3000004F0DF143088DF8431023D002202B23D1
:101C4000002F01DA7F422D234FF00A0C011EA0F174
:101C5000010000DC4FB197FBFCF10CFB11720F4649
:101C600002F1300208F8012DF0E7A8F1010003703D
:101C70002188090501D5452100E06521A0F1010871
:101C800000F8011C09980FA9A1EB080707F1070745
:101C900000B1012000EB050101EBEA70A1693844B5
:101CA000A1EB0000A0F10100A0612078C00602D4E1
:101CB0002046FFF7D8FB099830B1D4E901219047BD
:101CC000206A00F1010020622078C00620D520465D
:101CD000FFF7C9FB1CE0002E04DBB34502DD01A8C1
:101CE000805D00E03020D4E901219047206A761C15
:101CF000401CBAF1010A20620AD100F087F8C068DE
:101D00000168405CD4E901219047206A401C2062B0
:101D1000281EA5F10105DEDC07E0D4E9012118F851
:101D2000010B9047206A401C2062381EA7F1010772
:101D3000F3DC2046FFF7AEFB022011B040E610B501
:101D4000436913B1AFF3008001E0FFF77FFC01208E
:101D500010BD128800F1240182840022C284012275
:101D6000EDE711684FF0FF32E9E7007B00F08000FB
:101D7000704770B516460C46054600F03FF80368FC
:101D800093F80101012806D0FF2C0FD8185D68B127
:101D900001202C7070BDD3F8070132462146034460
:101DA0002846BDE8704003F2071318474FF0FF3094
:101DB00070BD754600F0E6F8AE460500694653462C
:101DC00020F00700854618B020B5FEF767FABDE899
:101DD00020404FF000064FF000074FF000084FF092
:101DE000000B21F00701AC46ACE8C009ACE8C00923
:101DF000ACE8C009ACE8C0098D46704710B500F0EA
:101E000005F8001D10BD00BFDD0900000048704747
:101E1000100900202DE9F0411F4604460326016801
:101E2000072A01F4006004DB08B116A505E016A539
:101E300003E008B115A500E015A521F01000206011
:101E4000A069C01EA0610FB1401EA0612046FFF72F
:101E50000AFB4FB1D4E9012138469047206A401C63
:101E60002062C01C206206E0206AFAE7D4E9012162
:101E700015F8010B9047761EF8D22046FFF70AFBB3
:101E8000BDE8F0814E414E006E616E00494E460045
:101E9000696E66002DE9F047814616468AB03548DE
:101EA0007844D0E9002380680092CDE901303148C0
:101EB00078440C38D0E90223006903924FF03702CE
:101EC000CDE9043041F69B30014491FBF2F0A0F1E2
:101ED000800502FB10141B3C02D56442012000E087
:101EE0000020DFF890A080460027FA44AAF1C60A35
:101EF0000DE0E00709D03246684607EB47010AEBE0
:101F0000810100F008FB8DE8070064107F1C002CA5
:101F1000EFD1184F7F44B43F17E0E80713D007EB29
:101F200004100DF1180A90E80E00AAE80E00C0682F
:101F3000F04201D198190890324606A903A800F092
:101F4000EAFA03AB07C36D10641C002DE5D13246DD
:101F50006946B8F1000F03A802D000F0C8FA01E00A
:101F600000F0D9FAC9E90001C9F808200AB0BDE8B3
:101F7000F0870000740F00000446AFF30080204695
:101F8000FEF773F900487047F00800204FF0013C5D
:101F900050F8042B51F8043B9A4221D1A2EB0C03D8
:101FA000934313EACC1317D150F8042B51F8043B98
:101FB0009A4215D1A2EB0C03934313EACC130BD135
:101FC00050F8042B51F8043B9A4209D1A2EB0C03C0
:101FD000934313EACC13DBD04FF00000704700BFEF
:101FE000D01A01BAB1FA81F101F0180122FA01F018
:101FF000CB40C1F12001DBB2C0B2C01A2CFA01F310
:10200000D11A914311EAC311E6D170475FEA400C3F
:1020100008BF91F0000F4FEA8C234FEAC12243EA38
:1020200051514FEA1C5018BF00F5F0404FEA300004
:1020300018BF41F000415FEA6C5C00F02980BCF100
:10204000FF3F08BF40F080407047130C06BF1204EA
:102050004FF0100C4FF0000C130E04BF12020CF1E5
:10206000080C130F04BF12010CF1040C930F04BFF2
:1020700092000CF1020CD30F04BF52000CF1010CC2
:1020800011464FF00002A0F11F00A0EB0C007047BA
:1020900011F0004F08BF704731F000413FF4D5AF59
:1020A0000B0C06BF09044FF0100C4FF0000C0B0E88
:1020B00004BF09020CF1080C0B0F04BF09010CF15D
:1020C000040C8B0F04BF89000CF1020CCB0F04BF72
:1020D00049000CF1010CCCF12003A0EB0C0022FA1A
:1020E00003F302FA0CF241EA030100F10100704728
:1020F00020F07F4C80EA030023F07F47ACEB07031E
:1021000003F57C5300F0004003F1FF032DE9804903
:102110004FEA154B09B44FEA144325EA0B4E24EA63
:1021200003480FF2042606EB132749083E785FEABE
:10213000320203FB0667C7F5000707FB06F64FEA06
:1021400054374FEAD64606F1020607FB066CCCF17F
:10215000005C4FEA1C472CEA074C07FB06F40CFB1B
:1021600006F504EB15464FEA961634BF00204FF0F3
:1021700000404FEAD13706FB07FC4FEA1C4C0CFB32
:102180000BF7D21B03FB0CF761EB07010CFB0EF7FF
:10219000B0EB074072EB17420CFB08F734BFA2EB21
:1021A0000742B2EB074261EB17414FEA0C444FEA9A
:1021B000910706FB07FC4FEA1C4C0CFB0BF7B0EB3E
:1021C000C74072EB573203FB0CF734BFA2EBC74298
:1021D000B2EBC74261EB57310CFB0EF7B0EBC70017
:1021E00072EB57720CFB08F734BFA2EBC702B2EBDD
:1021F000C70261EB5771039F4FEA816141EA921177
:1022000004EBCC044FEAD1374FEA826206FB07FCAD
:1022100042EA90124FEA80604FEA1C4C0CFB0BF72D
:10222000D21B03FB0CF761EB07010CFB0EF7B0EBC5
:10223000074072EB17420CFB08F734BFA2EB0742D2
:10224000B2EB074261EB17414FEA8C554FEA910719
:1022500004EB9C2406FB07FC4FEA1C4C0CFB0BF721
:10226000B0EBC74072EB573203FB0CF734BFA2EB65
:10227000C742B2EBC74261EB57310CFB0EF7B0EB34
:10228000C70072EB57720CFB08F734BFA2EBC70212
:10229000B2EBC70261EB577115EB4C254FEA816138
:1022A00041EA92114FEA82624FEAD13742EA901234
:1022B00006FB07FC44F100044FEA80604FEA1C4C27
:1022C0000CFB0BF7D21B03FB0CF761EB07010CFBBC
:1022D0000EF7B0EB074072EB17420CFB08F734BF68
:1022E000A2EB0742B2EB074261EB174115EB1C155D
:1022F0004FEA813141EA92414FEA823242EA90420A
:102300004FEA80304FEA0C7644F1000448EA034378
:102310004EEA0B484FF0000EB2EB080C71EB0307CE
:1023200024BF624639464EEB0E0E4FF0000B0018EC
:10233000524149414BEB0B0BB2EB080C71EB03071D
:102340007BF1000B24BF624639464EEB0E0E4FF078
:10235000000B0018524149414BEB0B0BB2EB080C40
:1023600071EB03077BF1000B24BF624639464EEB4D
:102370000E0E51EA020718BF46F0010616EB0E7664
:1023800055F1000254F1000103D5BDE88901BDE813
:102390000088BDE88901BDE80048B619524141EB0B
:1023A0000101A3F10103704780807F7E7D7C7B7AF1
:1023B0007978777676757473727171706F6E6E6DF1
:1023C0006C6C6B6A6A696868676666656464636397
:1023D00062616160605F5F5E5E5D5D5C5C5B5B5A1D
:1023E0005A5959585857575656555555545453538A
:1023F00052525251515050504F4F4F4E4E4D4D4DE5
:102400004C4C4C4B4B4B4A4A4A494949484848472F
:10241000474747464646454545444444444343436D
:102420004342424242414141002B26D4770021D011
:102430001CB54FEA370703B44FF010004FF01001FE
:102440004FF000000FBCBDE810400BF1010BBBF1D9
:10245000010F08BF5FEA170722BF12F1010211F155
:1024600001014FF0004143F1000300F0004043EA56
:1024700000007047F9D35708DAE746EA064613F139
:10248000400F4FEA16461FDD13F1200FDFBF164342
:102490000A46002120335B42C8D0C3F1200746EA38
:1024A000064602FA07F74FEA164646EA0706C3F160
:1024B000200722FA03F201FA07F721FA03F14FF09D
:1024C000000342EA0702B1E746EA020646EA064688
:1024D0004FEA164646EA0106BCBF46EA0646360CF7
:1024E0004FF000034FF000024FF000019EE72DE98E
:1024F000C048934630B491E8380007C831EA400C30
:1025000048BF34EA430C03D5FFF7F2FDFFF78CFF19
:10251000F0BCBDE800882DE9C048934630B491E88E
:10252000380007C810F0804F08BF13F0804F03D168
:1025300000F005F8FFF778FFF0BCBDE8008820F058
:102540007F4780EA030023F07F4C07EB0C03A3F5E1
:102550007C5300F00040A3F1FE0392F0000F00F066
:10256000B38095F0000F00F077802DE901494FEA24
:1025700011404FEA144621EA004800FB06FC24EA19
:10258000064708FB06F607FB08F800FB07F718EB01
:1025900006484CEB164C4FEA124B18EB07484FEA33
:1025A00015464CEB174022EA0B4E0BFB06FC25EAC6
:1025B00006470EFB06F607FB0EFE0BFB07F71EEBAE
:1025C000064E4CEB164C4FF000061EEB074E4CEB44
:1025D000174B18EB0B0840F1000018EB0E0B58EBF3
:1025E000000840F100008F1A4FF000013CBFC943C2
:1025F000661B14BFB5EB040C00213CBFC943F61B9E
:102600004FEA17444EEA8E0E27EA04454FEA1C476C
:1026100004FB07622CEA074C05FB07F70CFB05F6E9
:1026200004FB0CFC16EB074642EB174216EB0C467C
:1026300042EB1C421BEB060658EB0202414146EA04
:102640009E0601D5BDE80189B619524141EB010151
:10265000A3F10103BDE801894FEA14454FEA114790
:1026600024EA054621EA074C05FB07F406FB07F7B9
:102670000CFB06F105FB0CFC11EB074144EB174486
:102680004FEA124711EB0C4144EB1C4422EA074C81
:1026900005FB07F206FB07F70CFB06F605FB0CFC37
:1026A00016EB074642EB174216EB0C4642EB1C4575
:1026B0006A1854F1000148BF7047B619524141EB06
:1026C0000101A3F10103704795F0000F37D04FEAE5
:1026D00011424FEA144721EA024624EA074C02FB62
:1026E00007F106FB07F70CFB06F402FB0CFC14EBEE
:1026F000074441EB17414FEA154714EB0C4441EBFB
:102700001C4125EA074C02FB07F506FB07F70CFB0B
:1027100006F602FB0CFC16EB074645EB174516EBDD
:102720000C4645EB1C42121951F1000148BF70479D
:10273000B619524141EB0101A3F1010370474FEA81
:1027400014454FEA114724EA054621EA074C05FBE8
:1027500007F106FB07F70CFB06F24FF0000605FB3E
:102760000CFC12EB074241EB174112EB0C4251EB10
:102770001C4148BF7047921841EB0101A3F10103CE
:102780007047490050EAC12018BF04204A0D18BF05
:1027900040F0010040F2FF72B2EB515F08BF40F021
:1027A0000200012808BF0520704730380A2801D2EE
:1027B000012070470020704710B500290AD0087822
:1027C000002807D005487844FFF7E0FB002801D037
:1027D000002010BD0248784410BD0000BA06000079
:1027E000B206000010B500290AD00878002807D0EA
:1027F00005487844FFF7CAFB002801D0002010BD2F
:102800000248784410BD0000AA060000A20600009D
:1028100090EA010F48BF81F0004100F12E82421A78
:102820003CBF801A89184FEAD0524FF07F4C1CEA07
:10283000410FA2EBD15318BF9CEA026F00F03B801E
:102840004FF0004C4CEA00204CEA012121FA03FC35
:1028500010EB0C0C1ED202F1FF325FEA1C2040EBA1
:10286000C25038BF70471CF07F0F4FEA400C18BFB2
:10287000BCF17F4F38BF7047C3F12003994008BFB8
:1028800020F00100BCF17F4F38BF7047A0F1C0407D
:1028900000F0DDB94FEA3C00000A40EBC25028BF0F
:1028A0001CF0FF0F4FEA400CE6D018BFBCF17F4F81
:1028B00038BF7047EAE79CEA026F05D010EA5C0F68
:1028C00008BF00F00040704710B500F07AF900BF73
:1028D00064FBBE3E4FF47F0C1CEAD0121EBF1CEA04
:1028E000D11392EA0C0F93EA0C0F00F0858090EA66
:1028F000010F48BF42F4807240F4000C41F4000024
:102900002CF07F4120F07F4000B58142A2EB030212
:102910000FF2081CACEB504EC0F100009EF800E036
:102920004FEA4E0E00FB0EFC38BF49004FEA2C1C4C
:1029300002F5FA020CFB0EF34FEACE1E4FEA112C01
:102940004FEAC1210EEB635E42EB22420EFB0CFC10
:102950004FEA1C5300FB03114FEA112C4FEA0131DF
:102960000EFB0CFC4FEADC4C00FB0C11C14228BFF3
:1029700009184CEB03335DF804EB10EB410143EB1A
:10298000C250B2F57C0F38BF704729D512F0F00F56
:102990001CBF00F1C04000F00040704700818283FE
:1029A0008485868788898B8C8D8E8F91929395965E
:1029B00097999A9C9D9FA0A2A3A5A7A8AAACAEB0E8
:1029C000B2B3B5B7B9BCBEC0C2C5C7C9CCCED1D4ED
:1029D000D7D9DCDFE2E6E9ECF0F3F7FAFE0000001D
:1029E0004FEA400C0CF1807CBCF17E4F28BF704751
:1029F000B0F1C04000F02BB990EA010F0CEAD113FE
:102A000048BF42F48072624538BF634507D213F471
:102A10007F0F16D080EA010000F00040704710B52B
:102A200000F0CFF8097EFC3E00F005B880EA010016
:102A300000F00040704780EA010000F0004000F024
:102A400006B912F47F0F04BF0248704780EA010004
:102A500000F0FDB80000C07FC10DD1F19E0206DB81
:102A60004FEA002343F0004323FA02F0704700428C
:102A700007D54FEA4001B1F1FE4F02D24FF00000FE
:102A8000704710B500F09DF84992248000207047EF
:102A90006FEA200070470000B0FA80F310FA03F2EA
:102AA000C3F19D030AD0D90501EB1220530638BFAC
:102AB000704700F1010008BF20F0010070470000DE
:102AC0004FF47F0C1CEAD0121EBF1CEAD11392EA0D
:102AD0000C0F93EA0C0F00F0478090EA010F48BFFB
:102AE00042F480724FF0004C4CEA00204CEA012185
:102AF00002EB0302A0FB0113A2F50002002918BF9C
:102B000043F001035B0028BF4FEA330342EB22424C
:102B10005FEA132C4CEBC2502EBFBCEB436FB2F5F7
:102B20007C0F70474FEA036CBCF1004F08BF20F0E8
:102B30000100B2F57C0F38BF70470BD582F0FF0261
:102B400012F5803FC8BF704700F1C040D8BF00F009
:102B50000040704700F5000C5FEA4C0C48BF70471E
:102B6000B0F1C04000F073B890EA010F0CEAD11345
:102B700048BF42F48072624538BF634504D280EAA0
:102B8000010000F00040704710B500F01AF800BFD7
:102B90008900013E00F007B800F009B85FEA410C77
:102BA0005FEA1C6C08D080EA010000F050B85FEAD0
:102BB000400C5FEA1C6CF6D14FF00040A0F580009D
:102BC00070470EF1020E2EF0030E5EF8044B244205
:102BD00004D44FEA4102B2F17F4F11D84FEA4003CB
:102BE000B3F17F4F0CD80ED14FEAD07CB2F17F4FBA
:102BF0000CEB4C0C0CF1020C08BF4CEBD17C04E04C
:102C00004FF0080C01E04FEAD17C0CEB4C0324FAA6
:102C100003F404F00704B4F1040C06D20EEB840CA8
:102C2000BDE810404CF0010C6047DFE80CF00708ED
:102C300002024FF00040A0F5800010BD084642009F
:102C400018BFD2F1807288BF00F0004010BDFF2194
:102C500041EAD050C005704780F0004090EA010F73
:102C60007FF5DDAD81F0004100F007B890EA010F7B
:102C700048BF81F000413FF5D2AD421A04D882F03E
:102C80000042A0EB020011444FEAD0524FF07F4CBB
:102C90001CEA410FA2EBD15318BF9CEA026F4AD045
:102CA0004FF0004C4CEA00204CEA012121FA03FCD1
:102CB000B0EB0C0C0FD412F0FE0F36D05FEA4C00D4
:102CC0001DD5001240EBC25038BF70471CF03F0FBB
:102CD00018BF70470BE0A2F101025FEA1C2040EB35
:102CE000C25038BF70471CF07F0F18BF7047C3F148
:102CF0002003994014BF401E20F001007047800857
:102D00004FEA122308BF7047B0FA80FCA2EB0C0216
:102D1000CCF1280C60FA0CF093EA122F04BF00EB00
:102D2000C25070474FEAC3707047130A5FEADC1065
:102D300008BF7047F6E79CEA026F04D010EA5C0F08
:102D400008BF0020704710B5FFF73BFF40DFF63E9D
:102D500081F000407047FEF7B8BE04000008000094
:102D60000000000000020001000010000000000050
:102D700000000000303132333435363738394142C3
:102D800043444546403058003031323334353637CD
:102D90003839616263646566403078000240000043
:102DA000000000A00000000005400000000000C876
:102DB000000000000C4000000000409C00000000EB
:102DC000194000000020BCBE00000000344000009C
:102DD000BFC91B8E00000004B5400000504BCFD08F
:102DE0006607E2CF010000006C4100003E8251AA5C
:102DF000DFEEA73401000000D9420000DCB5A0E2FC
:102E00003A301F97FFFFFFFFB4450000FD25A0C823
:102E1000E9A3C14FFFFFFFFFFF3F0000000000805C
:102E200000000000FF3F00000000008000000000E4
:102E30003330303030003139322E3136382E312EA9
:102E40003330003330313431353932360030357A71
:102E5000777000777061777061325F616573000031
:102E6000AC2F000800000020240000006C010008C6
:102E7000D02F0008240000202C0F0000880100083B
:102E80001C00000043000000F8FFFFFF0C000000E2
:102E90000E0000000F0000002E00000010010000D6
:102EA00043000000F8FFFFFF00404040404040402A
:102EB000404041414141414040404040404040400D
:102EC00040404040404040404005020202020202B1
:102ED0000202020202020202022020202020202000
:102EE0002020200202020202020290909090909014
:102EF00010101010101010101010101010101010D2
:102F00001010101002020202020288888888888845
:102F10000808080808080808080808080808080831
:102F20000808080802020202400000000000000039
:102F30000000000000000000000000000000000091
:102F40000000000000000000000000000000000081
:102F50000000000000000000000000000000000071
:102F60000000000000000000000000000000000061
:102F70000000000000000000000000000000000051
:102F80000000000000000000000000000000000041
:102F90000000000000000000000000000000000031
:102FA0000000000000000000000000000000000021
:102FB000000000000000000000000000302E0008AB
:102FC0004D2E0008532E0008432E0008362E000810
:040000050800028568
:00000001FF
